{
  "contractName": "ZalaryRegistry",
  "abi": [
    {
      "constant": true,
      "inputs": [
        {
          "name": "",
          "type": "address"
        },
        {
          "name": "",
          "type": "uint256"
        }
      ],
      "name": "recipentsByEmployer",
      "outputs": [
        {
          "name": "",
          "type": "address"
        }
      ],
      "payable": false,
      "stateMutability": "view",
      "type": "function"
    },
    {
      "constant": true,
      "inputs": [
        {
          "name": "",
          "type": "address"
        }
      ],
      "name": "employers",
      "outputs": [
        {
          "name": "id",
          "type": "uint256"
        },
        {
          "name": "offChainHash",
          "type": "bytes32"
        },
        {
          "name": "funds",
          "type": "uint256"
        }
      ],
      "payable": false,
      "stateMutability": "view",
      "type": "function"
    },
    {
      "constant": false,
      "inputs": [],
      "name": "renounceOwnership",
      "outputs": [],
      "payable": false,
      "stateMutability": "nonpayable",
      "type": "function"
    },
    {
      "constant": true,
      "inputs": [
        {
          "name": "",
          "type": "uint256"
        }
      ],
      "name": "employersList",
      "outputs": [
        {
          "name": "",
          "type": "address"
        }
      ],
      "payable": false,
      "stateMutability": "view",
      "type": "function"
    },
    {
      "constant": true,
      "inputs": [
        {
          "name": "",
          "type": "uint256"
        }
      ],
      "name": "payCheque",
      "outputs": [
        {
          "name": "employer",
          "type": "address"
        },
        {
          "name": "receipient",
          "type": "address"
        },
        {
          "name": "startTime",
          "type": "uint256"
        },
        {
          "name": "endTime",
          "type": "uint256"
        },
        {
          "name": "amount",
          "type": "uint256"
        },
        {
          "name": "lastReleasingTime",
          "type": "uint256"
        },
        {
          "name": "releasedAmount",
          "type": "uint256"
        }
      ],
      "payable": false,
      "stateMutability": "view",
      "type": "function"
    },
    {
      "constant": true,
      "inputs": [
        {
          "name": "",
          "type": "address"
        },
        {
          "name": "",
          "type": "address"
        }
      ],
      "name": "paymentsSchedule",
      "outputs": [
        {
          "name": "",
          "type": "uint256"
        }
      ],
      "payable": false,
      "stateMutability": "view",
      "type": "function"
    },
    {
      "constant": true,
      "inputs": [],
      "name": "owner",
      "outputs": [
        {
          "name": "",
          "type": "address"
        }
      ],
      "payable": false,
      "stateMutability": "view",
      "type": "function"
    },
    {
      "constant": true,
      "inputs": [],
      "name": "isOwner",
      "outputs": [
        {
          "name": "",
          "type": "bool"
        }
      ],
      "payable": false,
      "stateMutability": "view",
      "type": "function"
    },
    {
      "constant": false,
      "inputs": [
        {
          "name": "newOwner",
          "type": "address"
        }
      ],
      "name": "transferOwnership",
      "outputs": [],
      "payable": false,
      "stateMutability": "nonpayable",
      "type": "function"
    },
    {
      "inputs": [
        {
          "name": "_paymentCurrency",
          "type": "address"
        }
      ],
      "payable": false,
      "stateMutability": "nonpayable",
      "type": "constructor"
    },
    {
      "anonymous": false,
      "inputs": [
        {
          "indexed": true,
          "name": "_employer",
          "type": "address"
        },
        {
          "indexed": false,
          "name": "_offChainHash",
          "type": "bytes32"
        }
      ],
      "name": "AddEmployer",
      "type": "event"
    },
    {
      "anonymous": false,
      "inputs": [
        {
          "indexed": true,
          "name": "_employee",
          "type": "address"
        },
        {
          "indexed": true,
          "name": "_employer",
          "type": "address"
        },
        {
          "indexed": true,
          "name": "chequeNo",
          "type": "uint256"
        },
        {
          "indexed": false,
          "name": "_startTime",
          "type": "uint256"
        },
        {
          "indexed": false,
          "name": "_endTime",
          "type": "uint256"
        },
        {
          "indexed": false,
          "name": "_amount",
          "type": "uint256"
        }
      ],
      "name": "PaymentSchedule",
      "type": "event"
    },
    {
      "anonymous": false,
      "inputs": [
        {
          "indexed": false,
          "name": "_who",
          "type": "address"
        },
        {
          "indexed": true,
          "name": "_employer",
          "type": "address"
        },
        {
          "indexed": false,
          "name": "_funds",
          "type": "uint256"
        }
      ],
      "name": "AddFunds",
      "type": "event"
    },
    {
      "anonymous": false,
      "inputs": [
        {
          "indexed": false,
          "name": "_chequeNo",
          "type": "uint256"
        },
        {
          "indexed": false,
          "name": "amount",
          "type": "uint256"
        },
        {
          "indexed": false,
          "name": "receipient",
          "type": "address"
        }
      ],
      "name": "WithdrawPayment",
      "type": "event"
    },
    {
      "anonymous": false,
      "inputs": [
        {
          "indexed": false,
          "name": "_amount",
          "type": "uint256"
        },
        {
          "indexed": false,
          "name": "_employer",
          "type": "address"
        }
      ],
      "name": "WithdrawEmployerFunds",
      "type": "event"
    },
    {
      "anonymous": false,
      "inputs": [
        {
          "indexed": true,
          "name": "previousOwner",
          "type": "address"
        },
        {
          "indexed": true,
          "name": "newOwner",
          "type": "address"
        }
      ],
      "name": "OwnershipTransferred",
      "type": "event"
    },
    {
      "constant": false,
      "inputs": [
        {
          "name": "_employer",
          "type": "address"
        },
        {
          "name": "_offChainHash",
          "type": "bytes32"
        }
      ],
      "name": "addEmployer",
      "outputs": [],
      "payable": false,
      "stateMutability": "nonpayable",
      "type": "function"
    },
    {
      "constant": false,
      "inputs": [
        {
          "name": "_employer",
          "type": "address"
        }
      ],
      "name": "removeEmployer",
      "outputs": [],
      "payable": false,
      "stateMutability": "nonpayable",
      "type": "function"
    },
    {
      "constant": false,
      "inputs": [
        {
          "name": "_employee",
          "type": "address"
        },
        {
          "name": "_startTime",
          "type": "uint256"
        },
        {
          "name": "_endTime",
          "type": "uint256"
        },
        {
          "name": "_amount",
          "type": "uint256"
        }
      ],
      "name": "schedulePayment",
      "outputs": [],
      "payable": false,
      "stateMutability": "nonpayable",
      "type": "function"
    },
    {
      "constant": false,
      "inputs": [
        {
          "name": "_amount",
          "type": "uint256"
        },
        {
          "name": "_employer",
          "type": "address"
        }
      ],
      "name": "addFunds",
      "outputs": [],
      "payable": false,
      "stateMutability": "nonpayable",
      "type": "function"
    },
    {
      "constant": false,
      "inputs": [
        {
          "name": "_chequeNo",
          "type": "uint256"
        },
        {
          "name": "_allowDrained",
          "type": "bool"
        }
      ],
      "name": "withdrawPayment",
      "outputs": [],
      "payable": false,
      "stateMutability": "nonpayable",
      "type": "function"
    },
    {
      "constant": false,
      "inputs": [],
      "name": "withdrawEmployerFunds",
      "outputs": [],
      "payable": false,
      "stateMutability": "nonpayable",
      "type": "function"
    },
    {
      "constant": true,
      "inputs": [
        {
          "name": "_employee",
          "type": "address"
        }
      ],
      "name": "getEmployeeAllPayCheques",
      "outputs": [
        {
          "name": "",
          "type": "uint256[]"
        }
      ],
      "payable": false,
      "stateMutability": "view",
      "type": "function"
    },
    {
      "constant": true,
      "inputs": [
        {
          "name": "_employer",
          "type": "address"
        }
      ],
      "name": "getAllEmployeeByEmployer",
      "outputs": [
        {
          "name": "",
          "type": "address[]"
        }
      ],
      "payable": false,
      "stateMutability": "view",
      "type": "function"
    }
  ],
  "bytecode": "0x608060405234801561001057600080fd5b506040516020806116b18339810180604052602081101561003057600080fd5b5051600080546001600160a01b03191633178082556040516001600160a01b039190911691907f8be0079c531659141344cd1fd0a4f28419497f9722a3daafe3b4186f6b6457e0908290a361008e8161011e60201b61154c1760201c565b6100f957604080517f08c379a000000000000000000000000000000000000000000000000000000000815260206004820152601860248201527f496e76616c69642063757272656e637920416464726573730000000000000000604482015290519081900360640190fd5b600380546001600160a01b0319166001600160a01b0392909216919091179055610124565b3b151590565b61157e806101336000396000f3fe608060405234801561001057600080fd5b506004361061010b5760003560e01c80637191b10a116100a25780638cd8da73116100715780638cd8da731461039b5780638da5cb5b146103db5780638f32d59b146103e3578063cf669983146103ff578063f2fde38b146104075761010b565b80637191b10a146102bf578063737f766d146102e55780637fdd036d1461030257806386e7689a1461033a5761010b565b80633871e56b116100de5780633871e56b146101f6578063489bf6b81461026c57806351c6dbf914610292578063715018a6146102b75761010b565b806308b328bd146101105780630be435bd146101585780632bf37c421461019c5780632f26b3a2146101ca575b600080fd5b61013c6004803603604081101561012657600080fd5b506001600160a01b03813516906020013561042d565b604080516001600160a01b039092168252519081900360200190f35b61017e6004803603602081101561016e57600080fd5b50356001600160a01b0316610462565b60408051938452602084019290925282820152519081900360600190f35b6101c8600480360360408110156101b257600080fd5b50803590602001356001600160a01b0316610482565b005b6101c8600480360360408110156101e057600080fd5b506001600160a01b038135169060200135610696565b61021c6004803603602081101561020c57600080fd5b50356001600160a01b0316610820565b60408051602080825283518183015283519192839290830191858101910280838360005b83811015610258578181015183820152602001610240565b505050509050019250505060405180910390f35b61021c6004803603602081101561028257600080fd5b50356001600160a01b031661088c565b6101c8600480360360408110156102a857600080fd5b50803590602001351515610901565b6101c8610bec565b6101c8600480360360208110156102d557600080fd5b50356001600160a01b0316610c47565b61013c600480360360208110156102fb57600080fd5b5035610e63565b6101c86004803603608081101561031857600080fd5b506001600160a01b038135169060208101359060408101359060600135610e8a565b6103576004803603602081101561035057600080fd5b50356111fd565b604080516001600160a01b039889168152969097166020870152858701949094526060850192909252608084015260a083015260c082015290519081900360e00190f35b6103c9600480360360408110156103b157600080fd5b506001600160a01b0381358116916020013516611246565b60408051918252519081900360200190f35b61013c611263565b6103eb611273565b604080519115158252519081900360200190f35b6101c8611284565b6101c86004803603602081101561041d57600080fd5b50356001600160a01b0316611401565b6006602052816000526040600020818154811061044657fe5b6000918252602090912001546001600160a01b03169150829050565b600160208190526000918252604090912080549181015460029091015483565b816104cb5760408051600160e51b62461bcd02815260206004820152600e6024820152600160921b6d125b9d985b1a5908105b5bdd5b9d02604482015290519081900360640190fd5b6001600160a01b03811660009081526001602052604090205461052c5760408051600160e51b62461bcd02815260206004820152600e6024820152600160921b6d139bdd08185d5d1a1bdc9a5cd95902604482015290519081900360640190fd5b60035460408051600160e01b6323b872dd0281523360048201523060248201526044810185905290516001600160a01b03909216916323b872dd916064808201926020929091908290030181600087803b15801561058957600080fd5b505af115801561059d573d6000803e3d6000fd5b505050506040513d60208110156105b357600080fd5b50516106095760408051600160e51b62461bcd02815260206004820152601a60248201527f496e73756666696369656e742066756e647320616c6c6f776564000000000000604482015290519081900360640190fd5b6001600160a01b038116600090815260016020526040902060020154610635908363ffffffff61141e16565b6001600160a01b038216600081815260016020908152604091829020600201939093558051338152928301859052805191927fd7f5473ae03e0c897b7708b9458d3e2b745614d5295f27f938cae65456e665c0929081900390910190a25050565b6001600160a01b0382166106f45760408051600160e51b62461bcd02815260206004820152600f60248201527f496e76616c696420616464726573730000000000000000000000000000000000604482015290519081900360640190fd5b6001600160a01b038216600090815260016020526040902054156107625760408051600160e51b62461bcd02815260206004820152600e60248201527f416c726561647920657869737473000000000000000000000000000000000000604482015290519081900360640190fd5b60028054600180820183557f405787fa12a823e0f2b7631cc41b3ba8828b3321ca811111fa75cd3aa3bb5ace90910180546001600160a01b0319166001600160a01b038616908117909155604080516060810182528454815260208082018781526000838501818152868252878452908590209351845590519583019590955593519401939093558251848152925190927f89773073e69ede24cb1b3dbd81b688e9726d3c4e563bd9388fa6d1e102a365e392908290030190a25050565b6001600160a01b03811660009081526008602090815260409182902080548351818402810184019094528084526060939283018282801561088057602002820191906000526020600020905b81548152602001906001019080831161086c575b50505050509050919050565b6001600160a01b03811660009081526006602090815260409182902080548351818402810184019094528084526060939283018282801561088057602002820191906000526020600020905b81546001600160a01b031681526001909101906020018083116108d85750505050509050919050565b60045482111561095b5760408051600160e51b62461bcd02815260206004820152600e60248201527f496e76616c696420636865717565000000000000000000000000000000000000604482015290519081900360640190fd5b60008281526007602052604090206006810154600482015410156109c95760408051600160e51b62461bcd02815260206004820152600d60248201527f416c726561647920647269656400000000000000000000000000000000000000604482015290519081900360640190fd5b60006109e282600501544261143990919063ffffffff16565b90506000610a15610a048460020154856003015461143990919063ffffffff16565b60048501549063ffffffff61144e16565b90506000610a29838363ffffffff61147016565b905042846003015410158015610a3c5750845b15610a5d5760068401546004850154610a5a9163ffffffff61143916565b90505b4260058501556006840154610a78908263ffffffff61141e16565b6006850155600354600185015460408051600160e01b63a9059cbb0281526001600160a01b039283166004820152602481018590529051919092169163a9059cbb9160448083019260209291908290030181600087803b158015610adb57600080fd5b505af1158015610aef573d6000803e3d6000fd5b505050506040513d6020811015610b0557600080fd5b5051610b515760408051600160e51b62461bcd0281526020600482015260106024820152600160811b6f24b73b30b634b2103a3930b739b332b902604482015290519081900360640190fd5b83546001600160a01b0316600090815260016020526040902060020154610b7e908263ffffffff61143916565b84546001600160a01b039081166000908152600160208181526040928390206002019490945587015481518a815293840185905290911682820152517f4758e4f502b7d1ad925d80b9cc4a761afa50dfabf0d615edf6230e928251eb959181900360600190a1505050505050565b610bf4611273565b610bfd57600080fd5b600080546040516001600160a01b03909116907f8be0079c531659141344cd1fd0a4f28419497f9722a3daafe3b4186f6b6457e0908390a3600080546001600160a01b0319169055565b610c4f611273565b610c5857600080fd5b6001600160a01b03811660009081526001602052604090205480610cc65760408051600160e51b62461bcd02815260206004820152601760248201527f4e6f7420657869737420696e207468652073797374656d000000000000000000604482015290519081900360640190fd5b6001600160a01b0382166000908152600160205260409020600290810154905480831015610d915760026001820381548110610cfe57fe5b600091825260209091200154600280546001600160a01b03909216916000198601908110610d2857fe5b9060005260206000200160006101000a8154816001600160a01b0302191690836001600160a01b03160217905550826001600060026001870381548110610d6b57fe5b60009182526020808320909101546001600160a01b031683528201929092526040019020555b6001600160a01b03841660009081526001602081905260408220828155908101829055600290810191909155805490610dce906000198301611505565b5060035460408051600160e01b63a9059cbb0281526001600160a01b038781166004830152602482018690529151919092169163a9059cbb9160448083019260209291908290030181600087803b158015610e2857600080fd5b505af1158015610e3c573d6000803e3d6000fd5b505050506040513d6020811015610e5257600080fd5b5051610e5d57600080fd5b50505050565b60028181548110610e7057fe5b6000918252602090912001546001600160a01b0316905081565b33600090815260016020526040902054610ee25760408051600160e51b62461bcd02815260206004820152600e6024820152600160921b6d139bdd08185d5d1a1bdc9a5cd95902604482015290519081900360640190fd5b428310158015610ef157508282115b610f455760408051600160e51b62461bcd02815260206004820152601d60248201527f496e76616c696420737461727454696d6520616e6420656e6454696d65000000604482015290519081900360640190fd5b80610f8e5760408051600160e51b62461bcd02815260206004820152600e6024820152600160921b6d125b9d985b1a5908105b5bdd5b9d02604482015290519081900360640190fd5b6004600081548092919060010191905055506040518060e00160405280336001600160a01b03168152602001856001600160a01b03168152602001848152602001838152602001828152602001848152602001600081525060076000600454815260200190815260200160002060008201518160000160006101000a8154816001600160a01b0302191690836001600160a01b0316021790555060208201518160010160006101000a8154816001600160a01b0302191690836001600160a01b0316021790555060408201518160020155606082015181600301556080820151816004015560a0820151816005015560c0820151816006015590505060045460056000336001600160a01b03166001600160a01b031681526020019081526020016000206000866001600160a01b03166001600160a01b031681526020019081526020016000208190555060066000336001600160a01b03166001600160a01b031681526020019081526020016000208490806001815401808255809150509060018203906000526020600020016000909192909190916101000a8154816001600160a01b0302191690836001600160a01b031602179055505060086000856001600160a01b03166001600160a01b031681526020019081526020016000206004549080600181540180825580915050906001820390600052602060002001600090919290919091505550600454336001600160a01b0316856001600160a01b03167fbbf7b16e2ec4adb8c2da4aea48dae54d535203a2796ec4d1ab5dd45828f34a3f86868660405180848152602001838152602001828152602001935050505060405180910390a450505050565b60076020526000908152604090208054600182015460028301546003840154600485015460058601546006909601546001600160a01b0395861696959094169492939192909187565b600560209081526000928352604080842090915290825290205481565b6000546001600160a01b03165b90565b6000546001600160a01b0316331490565b336000908152600160205260409020546112dc5760408051600160e51b62461bcd02815260206004820152600e6024820152600160921b6d139bdd08185d5d1a1bdc9a5cd95902604482015290519081900360640190fd5b3360008181526001602090815260408083206002018054908490556003548251600160e01b63a9059cbb028152600481019690965260248601829052915190946001600160a01b039092169363a9059cbb93604480850194919392918390030190829087803b15801561134e57600080fd5b505af1158015611362573d6000803e3d6000fd5b505050506040513d602081101561137857600080fd5b50516113c45760408051600160e51b62461bcd0281526020600482015260106024820152600160811b6f24b73b30b634b2103a3930b739b332b902604482015290519081900360640190fd5b6040805182815233602082015281517f4dde2f764328d91728be12a1ba7879d460c4caee161c3da913d908385e99ba4b929181900390910190a150565b611409611273565b61141257600080fd5b61141b81611497565b50565b60008282018381101561143057600080fd5b90505b92915050565b60008282111561144857600080fd5b50900390565b600080821161145c57600080fd5b600082848161146757fe5b04949350505050565b60008261147f57506000611433565b8282028284828161148c57fe5b041461143057600080fd5b6001600160a01b0381166114aa57600080fd5b600080546040516001600160a01b03808516939216917f8be0079c531659141344cd1fd0a4f28419497f9722a3daafe3b4186f6b6457e091a3600080546001600160a01b0319166001600160a01b0392909216919091179055565b8154818355818111156115295760008381526020902061152991810190830161152e565b505050565b61127091905b808211156115485760008155600101611534565b5090565b3b15159056fea165627a7a7230582068286dc54e9124a91a90b01b4ca239278fd2473163c8730970836293d616bac30029",
  "source": "pragma solidity ^0.5.0;\n\nimport \"openzeppelin-solidity/contracts/ownership/Ownable.sol\";\nimport \"openzeppelin-solidity/contracts/token/ERC20/IERC20.sol\";\nimport \"openzeppelin-solidity/contracts/utils/Address.sol\";\nimport \"openzeppelin-solidity/contracts/math/SafeMath.sol\";\n\ncontract ZalaryRegistry is Ownable {\n\n    using SafeMath for uint256;\n\n    event AddEmployer(address indexed _employer, bytes32 _offChainHash);\n    event PaymentSchedule(\n        address indexed _employee,\n        address indexed _employer,\n        uint256 indexed chequeNo,\n        uint256 _startTime,\n        uint256 _endTime,\n        uint256 _amount\n    );\n    event AddFunds(address _who, address indexed _employer, uint256 _funds);\n    event WithdrawPayment(uint256 _chequeNo, uint256 amount, address receipient);\n    event WithdrawEmployerFunds(uint256 _amount, address _employer);\n\n    struct Employer {\n        uint256 id;\n        bytes32 offChainHash;\n        uint256 funds;  // This is the unused funds\n    }\n\n    struct Payment {\n        address employer;\n        address receipient;\n        uint256 startTime;\n        uint256 endTime;\n        uint256 amount;\n        uint256 lastReleasingTime;\n        uint256 releasedAmount; \n    }\n\n    // Storage\n    mapping(address => Employer) public employers;\n    address[] public employersList;\n\n    IERC20 paymentCurrency;\n\n    // Cheque no.\n    uint256 lastChequeNo; \n    // Storage for payment\n    mapping(address => mapping(address => uint256)) public paymentsSchedule;\n    // employer -> recepients[]\n    mapping(address => address[]) public recipentsByEmployer;\n    // Cheque no. -> details\n    mapping(uint256 => Payment) public payCheque;\n    // employee -> Cheque no.\n    mapping(address => uint256[]) employeePayCheque; \n\n    constructor(address _paymentCurrency) public {\n        // Right now we are only supporting DAI\n        require(Address.isContract(_paymentCurrency), \"Invalid currency Address\");\n        paymentCurrency = IERC20(_paymentCurrency);\n    }\n\n    function addEmployer(address _employer, bytes32 _offChainHash) external {\n        require(_employer != address(0), \"Invalid address\");\n        //require(_offChainHash.length > 0, \"Invalid off chain data\");\n        require(employers[_employer].id == 0, \"Already exists\");\n        employersList.push(_employer);\n        // To access the right index always subtract 1 from id value\n        employers[_employer] = Employer(employersList.length, _offChainHash, 0);\n        emit AddEmployer(_employer, _offChainHash);\n    }\n\n    function removeEmployer(address _employer) external onlyOwner {\n        uint256 id = employers[_employer].id;\n        require(id != 0, \"Not exist in the system\");\n        uint256 employersFunds = employers[_employer].funds;\n        uint256 currentListLen = employersList.length;\n        if (id < currentListLen) {\n            employersList[id -1] = employersList[currentListLen - 1];\n            employers[employersList[id -1]].id = id;\n        }\n        delete employers[_employer];\n        employersList.length--;\n        require(paymentCurrency.transfer(_employer, employersFunds));\n    }\n\n    function schedulePayment(address _employee, uint256 _startTime, uint256 _endTime, uint256 _amount) external {\n        require(employers[msg.sender].id != 0, \"Not authorised\");\n        require(_startTime >= now && _endTime > _startTime, \"Invalid startTime and endTime\");\n        require(_amount != 0, \"Invalid Amount\");\n        //require(employers[msg.sender].funds >= _amount, \"Insufficent funds\");\n        lastChequeNo++;\n        payCheque[lastChequeNo] = Payment(msg.sender, _employee, _startTime, _endTime, _amount, _startTime, 0);\n        paymentsSchedule[msg.sender][_employee] = lastChequeNo;\n        recipentsByEmployer[msg.sender].push(_employee);\n        employeePayCheque[_employee].push(lastChequeNo);\n        emit PaymentSchedule(_employee, msg.sender, lastChequeNo, _startTime, _endTime, _amount);\n    }\n\n    // Anybody can add funds\n    function addFunds(uint256 _amount, address _employer) external {\n        require(_amount != 0, \"Invalid Amount\");\n        require(employers[_employer].id != 0, \"Not authorised\");\n        require(paymentCurrency.transferFrom(msg.sender, address(this), _amount), \"Insufficient funds allowed\");\n        employers[_employer].funds = employers[_employer].funds.add(_amount);\n        emit AddFunds(msg.sender, _employer, _amount);\n    }\n\n    function withdrawPayment(uint256 _chequeNo, bool _allowDrained) external {\n        require(_chequeNo <= lastChequeNo, \"Invalid cheque\");\n        Payment storage _payment = payCheque[_chequeNo];\n        require(_payment.amount >= _payment.releasedAmount, \"Already dried\");\n        uint256 releasingSeconds = now.sub(_payment.lastReleasingTime);\n        uint256 ratio = _payment.amount.div(_payment.endTime.sub(_payment.startTime));\n        \n        uint256 fundsPayed = releasingSeconds.mul(ratio);\n        // handling dust here\n        if (_payment.endTime >= now && _allowDrained) {\n            fundsPayed = _payment.amount.sub(_payment.releasedAmount);\n        }\n        _payment.lastReleasingTime = now;\n        _payment.releasedAmount = _payment.releasedAmount.add(fundsPayed);\n        require(paymentCurrency.transfer(_payment.receipient, fundsPayed), \"Invalid transfer\");\n        employers[_payment.employer].funds = employers[_payment.employer].funds.sub(fundsPayed);\n        emit WithdrawPayment(_chequeNo, fundsPayed, _payment.receipient);\n    }\n\n    function withdrawEmployerFunds() external {\n        require(employers[msg.sender].id != 0, \"Not authorised\");\n        uint256 trasferFunds = employers[msg.sender].funds;\n        employers[msg.sender].funds = 0;\n        require(paymentCurrency.transfer(msg.sender, trasferFunds), \"Invalid transfer\");\n        emit WithdrawEmployerFunds(trasferFunds, msg.sender);\n    }\n\n    function getEmployeeAllPayCheques(address _employee) external view returns(uint256[] memory){\n        return employeePayCheque[_employee];\n    }\n\n    function getAllEmployeeByEmployer(address _employer) external view returns(address[] memory) {\n        return recipentsByEmployer[_employer];\n    }\n    \n\n}",
  "sourcePath": "/Users/polymathdev/Documents/code/Zalary/contracts/ZalaryRegistry.sol",
  "compiler": {
    "name": "solc",
    "version": "0.5.8+commit.23d335f2.Emscripten.clang"
  },
  "schemaVersion": "3.0.9",
  "updatedAt": "2019-05-18T21:56:28.387Z",
  "devdoc": {
    "methods": {
      "isOwner()": {
        "return": "true if `msg.sender` is the owner of the contract."
      },
      "owner()": {
        "return": "the address of the owner."
      },
      "renounceOwnership()": {
        "details": "Allows the current owner to relinquish control of the contract. It will not be possible to call the functions with the `onlyOwner` modifier anymore."
      },
      "transferOwnership(address)": {
        "details": "Allows the current owner to transfer control of the contract to a newOwner.",
        "params": {
          "newOwner": "The address to transfer ownership to."
        }
      }
    }
  },
  "userdoc": {
    "methods": {
      "renounceOwnership()": {
        "notice": "Renouncing ownership will leave the contract without an owner, thereby removing any functionality that is only available to the owner."
      }
    }
  }
}